:020000040000FA
:100000000C9462000C948A000C948A000C949B1847
:100010000C949B180C949B180C948A000C948A00E6
:100020000C948A000C948A000C948A000C948A0028
:100030000C948A000C948A000C948A000C948A0018
:100040000C9451180C948A000C941F180C94F917F6
:100050000C948A000C948A000C948A000C948A00F8
:100060000C9413190C948A0000000000240027004F
:100070002A0000000008000201000003040700003D
:1000800000000000000000000000230026002900FE
:1000900000000000250028002B00040404040404D0
:1000A0000404020202020202030303030303010227
:1000B00004081020408001020408102001020408F6
:1000C00010202E1A11241FBECFEFD8E0DEBFCDBF07
:1000D00026E0A8E2B2E001C01D92A330B207E1F72A
:1000E00012E0A0E0B1E0EAE7FFE302C005900D9264
:1000F000A832B107D9F710E0C2E6D0E004C02197DA
:10010000FE010E94C31DC136D107C9F70E94991A8A
:100110000C94BB1F0C940000FC01248135816217F4
:10012000730720F480819181009729F41092E804EC
:1001300088EE94E00895860F971F08950895DB01D7
:1001400014964D915C9115976D917C91DC01ED9128
:10015000FC910280F381E02D0994AF92BF92CF927F
:10016000DF92EF92FF920F931F93CF93DF936C0177
:100170007B018B01040F151FEB015E01AE18BF0858
:10018000C017D10759F06991D601ED91FC9101900A
:10019000F081E02DC6010995892B79F7C501DF9122
:1001A000CF911F910F91FF90EF90DF90CF90BF9074
:1001B000AF900895FC01538D448D252F30E0842F9E
:1001C00090E0821B930B541710F0CF96089501977F
:1001D0000895FC01918D828D981761F0A28DAE0F6C
:1001E000BF2FB11D5D968C91928D9F5F9F73928FF3
:1001F00090E008958FEF9FEF0895FC01918D828D1F
:10020000981731F0828DE80FF11D858D90E00895EB
:100210008FEF9FEF0895FC01918D228D892F90E043
:10022000805C9F4F821B91098F739927089585EFFA
:1002300094E00E940B0121E0892B09F420E0822F39
:10024000089580E090E0892B29F00E941701811128
:100250000C9400000895FC01A48DA80FB92FB11DC6
:10026000A35ABF4F2C91848D90E001968F739927EC
:10027000848FA689B7892C93A089B1898C918370CA
:1002800080648C93938D848D981306C00288F389C3
:10029000E02D80818F7D80830895EF92FF920F93F0
:1002A0001F93CF93DF93EC0181E0888F9B8D8C8D22
:1002B00098131AC0E889F989808185FF15C09FB716
:1002C000F894EE89FF896083E889F98980818370D9
:1002D000806480839FBF81E090E0DF91CF911F9188
:1002E0000F91FF90EF900895F62E0B8D10E00F5FA9
:1002F0001F4F0F731127E02E8C8D8E110CC00FB67F
:1003000007FCFACFE889F989808185FFF5CFCE0116
:100310000E942B01F1CFEB8DEC0FFD2FF11DE35A65
:10032000FF4FF0829FB7F8940B8FEA89FB89808199
:100330008062CFCFCF93DF93EC01888D8823B9F013
:10034000AA89BB89E889F9898C9185FD03C08081E0
:1003500086FD0DC00FB607FCF7CF8C9185FFF2CF5D
:10036000808185FFEDCFCE010E942B01E9CFDF9187
:10037000CF910895833081F028F4813099F0823054
:10038000A9F008958730A9F08830C9F08430B1F41D
:10039000809180008F7D03C0809180008F77809353
:1003A0008000089584B58F7784BD089584B58F7DCE
:1003B000FBCF8091B0008F778093B000089580913B
:1003C000B0008F7DF9CFCF93DF93282F30E0F90174
:1003D000EE58FF4F8491F901E255FF4FD491F90196
:1003E000E656FF4FC491CC23A1F081110E94BA01BF
:1003F000EC2FF0E0EE0FFF1FEA57FF4FA591B491ED
:10040000EC91ED2381E090E009F480E0DF91CF9161
:10041000089580E090E0FACF1F93CF93DF93282FC9
:1004200030E0F901EE58FF4F8491F901E255FF4F9A
:10043000D491F901E656FF4FC491CC23A9F0162FB1
:1004400081110E94BA01EC2FF0E0EE0FFF1FE05780
:10045000FF4FA591B4918FB7F894EC91111108C09A
:10046000D095DE23DC938FBFDF91CF911F9108954C
:10047000DE2BF8CFCF93DF9390E0FC01E255FF4FE6
:10048000249186569F4FFC0184918823D1F090E0FF
:10049000880F991FFC01E859FF4FA591B491FC0109
:1004A000E057FF4FC591D49161110EC09FB7F894EA
:1004B0008C91E22FE0958E238C932881E223E883B0
:1004C0009FBFDF91CF9108958FB7F894EC91E22B05
:1004D000EC938FBFF6CF60E08091F6050E943A0260
:1004E00061E08091F5050E940C028091F6050E9462
:1004F000E3010197D1F360E08091F5050C940C02C3
:10050000CF93DF93C5EFD5E061E089810E943A0285
:1005100060E089810E940C0261E088810E940C02E7
:1005200061E089810E940C0260E08981DF91CF91B6
:100530000C943A02806480937C0080917A008064FD
:1005400080937A0080917A0086FDFCCF80917800BC
:100550009091790008953FB7F8948091E4049091C8
:10056000E504A091E604B091E70426B5A89B05C078
:100570002F3F19F00196A11DB11D3FBFBA2FA92F22
:10058000982F8827BC01CD01620F711D811D911D1F
:1005900042E0660F771F881F991F4A95D1F708958B
:1005A0008F929F92AF92BF92CF92DF92EF92FF9283
:1005B0004B015C010E94AB026B017C010E94AB020B
:1005C0006C197D098E099F09683E7340810591056C
:1005D000A8F321E0821A9108A108B10888EEC80E9C
:1005E00083E0D81EE11CF11C81149104A104B10424
:1005F00029F7FF90EF90DF90CF90BF90AF909F9042
:100600008F9008952FB7F8946091E0047091E10401
:100610008091E2049091E3042FBF08952091EB04B0
:100620003091EC042817390771F49091E904809116
:10063000EA04981741F0E091E904F0E0E156FB4F3D
:10064000808190E008958FEF9FEF08950895EF92D5
:10065000FF920F931F93CF93DF93DC015C96ED9095
:10066000FC905D97E114F10479F481E090E0139639
:100670009C938E93129790E080E0DF91CF911F9131
:100680000F91FF90EF9008955196ED91FC91529744
:1006900050968C915097982F90950FB75E962C910D
:1006A0005E97122F127021FD6095F894208111231E
:1006B00019F1282B2083E7012197F1F728E0462F35
:1006C00050E0308160FF1AC0382B3083E70121975A
:1006D000F1F7BA0175956795215089F7112381F0DB
:1006E0008081892380830FBF5C968D919C910197B7
:1006F000F1F781E090E0C1CF2923DCCF3923E5CFAA
:100700009081892BEFCF2091EB043091EC042817D6
:10071000390771F48091EA042091E90490E0805C4B
:100720009F4F821B910960E470E00E94791D08953B
:1007300090E080E008952091EB043091EC042817BC
:100740003907B9F49091E9048091EA04981789F087
:10075000E091E904F0E0E156FB4F80812091E9044B
:1007600030E02F5F3F4F2F7333272093E90490E051
:1007700008958FEF9FEF089520919902211109C0EC
:1007800021E02093990230919205209193053CBD80
:100790002DBD60E0FC0184810C940C0261E0FC0141
:1007A00084810E940C028091990281111092990219
:1007B00008958EBD00000DB407FEFDCF8EB50895DF
:1007C0008FEF0C94D9030F931F93CF93DF93EC011A
:1007D0000E9402038B010E94E0038F3F69F00E9498
:1007E0000203601B710B6C177D07A8F380E0DF919B
:1007F000CF911F910F91089581E0F9CFCF92DF92B1
:10080000EF92FF920F931F93CF93DF93EC01162F7C
:1008100069017A018E81882389F08F8198859C01F6
:100820002F5F3F4F38872F838230924018F40E9409
:10083000E003F3CFCE010E94CE031E82CE010E94C0
:10084000BC038CE291E00E94E303812F80640E944C
:10085000D90308E110E0D701C601002E04C0B69507
:10086000A795979587950A94D2F70E94D9030850C7
:100870001109083F8FEF180771F78FEF0E94D90316
:1008800010E00E94E0038A8787FF04C01F3F11F039
:100890001F5FF7CFDF91CF911F910F91FF90EF90E6
:1008A000DF90CF900895CF92DF92EF92FF920F9357
:1008B000CF93DF93EC01690182E141155105610598
:1008C000710599F08B85833039F089E0440F551F0D
:1008D000661F771F8A95D1F79A01AB0168E1CE01B7
:1008E0000E94FE03882319F084E08D832DC08EEFD3
:1008F0000E94D90376018EEFD81AF70181917F010A
:100900000E94D903EC14FD04C1F78FEF0E94D903B4
:100910008FEF0E94D9030E94E0038A878F71853090
:1009200071F4011116C0CE010E94CE0381E0DF9167
:10093000CF910F91FF90EF90DF90CF90089581E1DC
:100940008D83CE010E94CE03CE010E94CE0380E0B3
:10095000EECF88E592E00E94E303811102C085E1B9
:10096000C4CF20E030E0A9016DE0CE010E94FE037B
:10097000882311F084E1B9CF0E94E0038111FACFFE
:10098000D2CF0F9340919B0250919C0260919D02A7
:1009900070919E02411551056105710589F0082F7E
:1009A0002FE932E090E080E00E945304882349F070
:1009B00010929B0210929C0210929D0210929E0235
:1009C00081E00F9108950F93CF93C82F80919A02E1
:1009D000811105C0C1E08C2FCF910F9108954091F6
:1009E00000015091010160910201709103010C2FEF
:1009F0002FE932E090E080E00E945304811102C0B0
:100A0000C0E0E9CFCC2331F381E00E94C104882308
:100A1000B9F310929A02DFCFAF92BF92CF92DF92DA
:100A2000EF92FF921F93CF93DF936B017C01142F02
:100A30008091000190910101A0910201B091030108
:100A40008C159D05AE05BF0509F4ADC081E00E947F
:100A5000E3048823E1F1809106008823A1F08091CE
:100A6000000090910100A0910200B0910300C8160F
:100A7000D906EA06FB0639F4809107009091080038
:100A8000892B09F44FC0C0920000D0920100E0927F
:100A90000200F092030080910B00A70196018330C1
:100AA00039F099E0220F331F441F551F9A95D1F753
:100AB00061E190E080E00E94FE03882391F083E0F2
:100AC0008093050090E080E00E94CE0380E0DF91FB
:100AD000CF911F91FF90EF90DF90CF90BF90AF909C
:100AE00008950E940203EB010E94E00380930A0034
:100AF0008F3F79F40E9402036C1B7D0B6D327140B5
:100B000098F38FE08093050090E080E00E94CE0390
:100B1000D9CF8E3FC1F5109208001092070081E0F6
:100B200080930600CFE9D2E08FE9A82E84E0B82EAA
:100B30000E94E0038993AC16BD06D1F780910700AF
:100B4000909108009E5F9093080080930700209189
:100B50000900222319F081159240E8F080910600E7
:100B60008823C9F080910700909108009C012F5FB5
:100B70003F4F30930800209307008230924028F4C2
:100B80000E94E003EFCF8DE0BDCF90E080E00E94B7
:100B9000CE0310920600C0920001D0920101E092B3
:100BA0000201F092030140919A02412B40939A0274
:100BB00081E08DCF4F925F926F927F928F929F9242
:100BC000AF92BF92CF92DF92EF92FF920F931F935B
:100BD000CF93DF93EC01423051056105710590F42C
:100BE00080E0DF91CF911F910F91FF90EF90DF9008
:100BF000CF90BF90AF909F908F907F906F905F90BD
:100C00004F90089589859A85AB85BC850196A11D75
:100C1000B11D84179507A607B70710F3CB88DC88AA
:100C2000ED88FE888F89803109F042C0BB27A72F4D
:100C3000962F852F480159012A013B01C80ED91E64
:100C4000EA1EFB1E8091000190910101A09102011A
:100C5000B0910301C816D906EA06FB0699F58F89FB
:100C60008031C1F5B301A201552766277727440FCC
:100C7000551F41565D4FFA019182808280919A0200
:100C8000816080939A028A89823080F08D819E8172
:100C9000AF81B8858C0D9D1DAE1DBF1D80939B023D
:100CA00090939C02A0939D02B0939E0281E099CF05
:100CB000DB01CA01E7E0B695A79597958795EA9578
:100CC000D1F7B8CF40E0C701B6010E940C058111F1
:100CD000C6CF86CFB301A2014F7755276627772766
:100CE000440F551F440F551F41565D4FFA01808236
:100CF0009182A282B382C2CF8F929F92AF92BF9213
:100D0000CF92DF92EF92FF920F931F93CF93DF93D7
:100D1000FC0181859285A385B4850196A11DB11D35
:100D200084179507A607B70770F480E0DF91CF918D
:100D30001F910F91FF90EF90DF90CF90BF90AF90F9
:100D40009F908F90089583889488A588B688878916
:100D5000803189F5BB27A72F962F852FE9016A01DE
:100D60007B018F01BC01CD01680D791D8A1D9B1D82
:100D70008090000190900101A0900201B0900301C9
:100D800086169706A806B90601F5F801878980310D
:100D900011F5DD24EE24FF24F601EE0FFF1FE156CE
:100DA000FD4F80819181B0E0A0E088839983AA8380
:100DB000BB8381E0BBCFDB01CA01C7E0B695A79535
:100DC00097958795CA95D1F7C9CF40E00E940C0549
:100DD0008111DBCFAACFE894C7F8DD24EE24FF24ED
:100DE000F601EE0FFF1FEE0FFF1FE156FD4F808152
:100DF0009181A281B381BF70D8CF8F929F92AF9221
:100E0000BF92CF92DF92EF92FF920F931F93CF93F7
:100E1000DF93EC018D8181110EC080E0DF91CF91D5
:100E20001F910F91FF90EF90DF90CF90BF90AF9008
:100E30009F908F9008950B891C892D893E890417F6
:100E400015072607370748F34A015B01823031F462
:100E50008A869B86AC86BD8681E0E0CF81149104B2
:100E6000A104B10449F41E821F82188619861A86CD
:100E70001B861C861D86F0CF0A851B852C853D852B
:100E8000EB8DFC8D858590E00996B901A801415054
:100E9000510961097109082E04C076956795579527
:100EA00047950A94D2F775016401E1E0CE1AD108A2
:100EB000E108F10804C0F694E794D794C7948A95A2
:100EC000D2F7C416D506E606F70620F0012B022B52
:100ED000032B11F58F89988DA98DBA8D8E839F83F1
:100EE000A887B9878E010A5F1F4FC114D104E1049E
:100EF000F10409F4ADCF4E815F8168857985980151
:100F00008B8D9C8D0E947C0691E0C91AD108E10866
:100F1000F1088111EACF81CFC41AD50AE60AF70A8F
:100F2000E1CF3F924F925F926F927F928F929F920A
:100F3000AF92BF92CF92DF92EF92FF920F931F93E7
:100F4000CF93DF93CDB7DEB72C970FB6F894DEBF03
:100F50000FBECDBF5C01DC015B968D909C905C97D1
:100F600016964D905D906D907C90199741145104A8
:100F70006104710409F468C0BFEF4B1A5B0A6B0A85
:100F80007B0A312CF40181859285A385B4859C016F
:100F9000AD012F5F3F4F4F4F5F4F29873A874B87F8
:100FA0005C87730162011D821E821F821886F40114
:100FB00081859285A385B4852D813E814F81588599
:100FC000281739074A075B0708F056C089859A85B4
:100FD000AB85BC858C159D05AE05BF0550F482E040
:100FE000C82ED12CE12CF12C92E0492E512C612CF1
:100FF000712C9E012F5F3F4FB701A601C4010E94D3
:101000007C068823C9F189819A81AB81BC81892BB7
:101010008A2B8B2B09F1260137019FEF491A590AB8
:10102000690A790A2D813E814F8158852F5F3F4F94
:101030004F4F5F4F2D833E834F8358873FEFC31A37
:10104000D30AE30AF30AB3CFF401408051806280EF
:1010500073803324339496CFC414D504E604F70484
:1010600009F70FEF1FEF2FEF3FE0B701A601C40113
:101070000E94DA05811119C080E02C960FB6F89411
:10108000DEBF0FBECDBFDF91CF911F910F91FF90BB
:10109000EF90DF90CF90BF90AF909F908F907F9018
:1010A0006F905F904F903F900895D50116964D91A7
:1010B0005D916D917C9119974115510561057105FF
:1010C00039F097018601C4010E94DA058823A1F254
:1010D000D5011696CD92DD92ED92FC9219973320B0
:1010E00051F0D701C6010196A11DB11DF401808305
:1010F0009183A283B383F5018789908DA18DB28DF1
:10110000892B8A2B8B2B39F48481C78AD08EE18E70
:10111000F28E80688483F50184818062848381E01B
:10112000ACCF1F93CF93DF93EC01162F8C8187FFF9
:101130002AC06E857F858889998941E00E940C05C7
:10114000882361F1EA8980E2E89FF0011124E156E9
:10115000FD4F309719F18D81823040F48B899C8945
:10116000AD89BE89848F958FA68FB78F8F89988D13
:10117000938F828F8F89988DA98DBA8DB58BA48B13
:101180008C818F778C83111103C08C818F7E8C832F
:10119000812FDF91CF911F910C94E30480E0DF91C8
:1011A000CF911F9108951F93CF93DF93EC018D8111
:1011B000813031F090E080E0DF91CF911F91089570
:1011C0008C8181FFF7CF82FD1BC090E080E00E9400
:1011D000BC030E94E003182F90E080E00E94CE0341
:1011E0001F3F41F78C8185FF1EC08D81882321F030
:1011F00060E0CE010E9491088C818F7D8C83DACFD4
:101200004B895C896D897E898A859B85AC85BD8586
:1012100084179507A607B707C1F2CE010E94FD0605
:101220008111D3CFC7CF40919B0250919C02609116
:101230009D0270919E02452B462B472B21F080E0AA
:101240000E94C104B7CF80618C832A853B853170B1
:1012500080E092E0821B930BAFCF9F92AF92BF9240
:10126000CF92DF92EF92FF920F931F93CF93DF9372
:1012700000D000D01F92CDB7DEB78C016D83DC01AA
:1012800015968C911597813009F0B9C014968C9100
:1012900081FFB5C082FD9FC0D8015B96ED91FC91A6
:1012A0005C971A96AD90BD90CD90DC901D97948080
:1012B0009A94B601A50189E076956795579547956B
:1012C0008A95D1F79422B1E0BB22992009F49FC0FE
:1012D000D8015B96ED91FC915C971696CD90DD90D0
:1012E000ED90FC901997B2E0CB1AD108E108F10813
:1012F000858504C0CC0CDD1CEE1CFF1C8A95D2F742
:101300004685578560897189C40ED51EE61EF71E75
:10131000C90CD11CE11CF11CA114B10409F00AC1D3
:10132000F801428553856485758583899489A589EB
:10133000B689481759076A077B0708F4FBC081E0A4
:101340000E94E304882309F45AC0C0920001D0929D
:101350000101E0920201F092030180919A02816002
:1013600080939A02F501E156FD4F8D818083F8014B
:1013700082859385A485B5850196A11DB11D8287BF
:101380009387A487B58743895489658976894817E7
:1013900059076A077B0738F42481838B948BA58BCC
:1013A000B68B20682483D80114968C9183FD9FC04E
:1013B00081E090E00F900F900F900F900F90DF91D1
:1013C000CF911F910F91FF90EF90DF90CF90BF9042
:1013D000AF909F900895F801438954896589768973
:1013E00082859385A485B585481759076A077B07C9
:1013F00009F452CFC8010E94FD0681114DCF81E052
:1014000090E0D80113969C938E93129749C0D8010F
:1014100016964D915D916D917C911997A114B1042F
:1014200009F071C0411551056105710589F557969F
:101430008D919D910D90BC91A02D0097A105B105B6
:1014400009F04FC0C8010E9491078823C1F2D8015A
:101450005B96ED91FC915C971696CD90DD90ED90AA
:10146000FC901997B2E0CB1AD108E108F108858504
:1014700004C0CC0CDD1CEE1CFF1C8A95D2F74685FF
:10148000578560897189C40ED51EE61EF71E48CFA8
:101490009E012F5F3F4FCF010E947C06811103C048
:1014A00090E080E087CF89819A81AB81BC81F8018F
:1014B000238D348DF901278948EF5FEF60E070E0FC
:1014C000203121F048EF5FEF6FEF7FE08417950741
:1014D000A607B70730F0C8010E9491078111F8CE26
:1014E0008ECFF80186839783A087B187F1CEF8016C
:1014F0008581882309F483CF61E0C8010E949108A7
:10150000811156CF7CCF6A017B01B2E0CB1AD108A2
:10151000E108F108858504C0CC0CDD1CEE1CFF1C25
:101520008A95D2F74685578560897189C40ED51E84
:10153000E61EF71E41E0C701B6010E940C058111AD
:1015400011CF5DCF20914F02260F3327331F213259
:101550003105ECF420917302FC0190E080E024302E
:1015600069F082E00895A0914F022191AC01415DA4
:101570005D4FA40FB52FB11D2C930196861798F3DC
:1015800080914F02680F60934F0280E0089581E0E0
:1015900008958FEF9FEF08958FEF9FEF089580914B
:1015A000280290E09195819591090895CF93DF935A
:1015B000CB01EA01642F0E94A20ACE01DF91CF91F4
:1015C0000895CF93DF931F92CDB7DEB7698361E0B3
:1015D000CE0101960E94A20A81E090E00F90DF9177
:1015E000CF91089590E080E0089580E00E949A02F3
:1015F0008C3391057CF0883C91057CF0803921E0AA
:10160000920774F0883522E092076CF080329340A4
:101610006CF0089583E090E0089581E090E00895F3
:1016200082E090E0089590E080E0089584E090E00A
:1016300008950F931F93CF93DF93082F162FD42F66
:10164000C8E06D2F661F6627661F802F0E940C0260
:10165000DD0F61E0812F0E940C0260E0812F0E946B
:101660000C02C15071F7DF91CF911F910F91089536
:101670001F93CF93DF93182FC5EFD5E061E08981E9
:101680000E943A0261E089810E940C0261E0888137
:101690000E940C0260E089810E940C0260E0888157
:1016A0000E940C02412F68818981DF91CF911F91A7
:1016B0000C94190B1F93CF93DF93182FC5EFD5E030
:1016C00061E089810E943A02412F68818981DF911E
:1016D000CF911F910C94190BCF93DF939091FE053E
:1016E000992349F194EE9093BC009091BC0097FF30
:1016F000FCCF90ED9093BB0094EC9093BC00909144
:10170000BC0097FFFCCF8093BB0084EC8093BC00AF
:101710008091BC0087FFFCCF6093BB0084EC80937A
:10172000BC008091BC0087FFFCCF84E98093BC00A3
:10173000DF91CF910895C62FD82F80ED0E94380BEE
:101740000E946B028D2F0E945A0B0E946B028C2FFD
:101750000E945A0B0E946B02DF91CF910C94800281
:10176000BF92CF92DF92EF92FF920F931F93CF938E
:10177000DF93CDB7DEB728970FB6F894DEBF0FBE64
:10178000CDBF8091FE05882309F49EC084EE80932E
:10179000BC008091BC0087FFFCCF80ED8093BB0034
:1017A00084EC8093BC008091BC0087FFFCCF10923A
:1017B000BB0084EC8093BC008091BC0087FFFCCF11
:1017C00084EE8093BC008091BC0087FFFCCF81ED4C
:1017D0008093BB0084EC8093BC008091BC0087FFA9
:1017E000FCCFE7EFF5E08EEF95E034EC3093BC00F2
:1017F0002091BC0027FFFCCF2091BB0021938E17C6
:101800009F07A1F784E88093BC008091BC0087FF0C
:10181000FCCF84E98093BC004091F705842F82952A
:1018200087705AE04F70859F400D11243091F80564
:10183000832F829587703F70859F300D11246091B2
:10184000F905262F2F70862F90E067FFAAC065FB51
:10185000882780F9FCE08F9F200D1124F091FA0574
:101860005091FB056091FC058091FD05952F9295A7
:1018700097707AE05F70979F500D1124E62FE295E4
:10188000E7706F70E79F600D1124982F92959F70FD
:101890008F70979F800D112490E08053984F9F8305
:1018A0008E83782F8F819F2F28960FB6F894DEBFF6
:1018B0000FBECDBFDF91CF911F910F91FF90EF90A1
:1018C000DF90CF90BF90089580ED0E94380B0E946A
:1018D0006B0280E00E945A0B0E946B0281ED0E9415
:1018E000380B0E946B02E7EFCE2EE5E0DE2E10E013
:1018F00000E060E08091F6050E943A0277E0E72E72
:10190000F12CB12C61E08091F5050E940C028091D0
:10191000F6050E94E30199270E2C01C0880F0A9456
:10192000EAF7B82A60E08091F5050E940C0281E098
:10193000E81AF10838F7F601B1926F018091F605C7
:1019400061E00630110521F10E943A0260E08091C9
:10195000F5050E940C0260E08091F6050E940C02E1
:1019600061E08091F5050E940C0260E08091F50530
:101970000E940C0260E08091F6050E943A020F5F1F
:101980001F4F0730110509F0B4CF0E94800244CFE9
:101990000E943A0260E08091F5050E940C0261E02D
:1019A000DBCF64E0959587956A95E1F78370859F15
:1019B000200D112453CFCF93DF93CDB7DEB72897F7
:1019C0000FB6F894DEBF0FBECDBF0E94B00B6D8383
:1019D0007E838F8380E35A3028F0852F6AE00E944F
:1019E0006D1D805D80930D013AE0852F632F0E946D
:1019F0006D1D905D90930E018EE280930F012D81FD
:101A000080E32A3020F0822F0E946D1D805D80933C
:101A10001001822F6AE00E946D1D905D909311016C
:101A20008EE2809312012E813F81C90168EE73E03E
:101A30000E94791D605D60931301E4E6F0E0BF0150
:101A40000E94791D605D60931401C901BF010E946D
:101A5000791DEAE0F0E0BF010E94791D605D6093AE
:101A60001501C901BF010E94791D805D8093160197
:101A7000109217018DE091E028960FB6F894DEBF22
:101A80000FBECDBFDF91CF910895CF93DF93CDB738
:101A9000DEB728970FB6F894DEBF0FBECDBF0E9409
:101AA000B00B3A834B8380E32A3028F0822F6AE020
:101AB0000E946D1D805D809304013AE0822F632FA8
:101AC0000E946D1D905D909305018AE3809306014D
:101AD0002A8180E32A3020F0822F0E946D1D805DD4
:101AE000809307013AE0822F632F0E946D1D905D65
:101AF000909308018AE3809309012B8180E32A30C7
:101B000020F0822F0E946D1D805D80930A01822F3C
:101B10006AE00E946D1D905D90930B0110920C0184
:101B200084E091E028960FB6F894DEBF0FBECDBFDB
:101B3000DF91CF910895CF93DF93EC0160E08E8128
:101B40000E940C0261E08E810E940C0260E08E8196
:101B50000E940C028BE891E00197F1F7DF91CF91A1
:101B60000895CF92DF92EF92FF920F931F93CF933E
:101B7000DF936C017C0187E0E80EF11CD0E0C0E04F
:101B8000062F10E0B8010C2E02C0759567950A94D7
:101B9000E2F76170F70181917F010E940C022196AA
:101BA000C430D10579F7C601DF91CF911F910F9114
:101BB000FF90EF90DF90CF900C949B0DCF92DF922F
:101BC000EF92FF920F931F93CF93DF93EC01F62ECA
:101BD000642F8C810E940C028D818F3F19F060E090
:101BE0000E940C020F2D10E08F8584FF25C06E012E
:101BF00087E0C80ED11CF12CE12CB8010E2C02C0DC
:101C0000759567950A94E2F76170F60181916F010D
:101C10000E940C02FFEFEF1AFF0A88E0E816F104B9
:101C200061F7CE01DF91CF911F910F91FF90EF905F
:101C3000DF90CF900C949B0DB80184E0759567956B
:101C40008A95E1F7CE010E94B10D6F2DCE01DF9193
:101C5000CF911F910F91FF90EF90DF90CF900C9458
:101C6000B10D40E0682F8DED95E00C94DE0D81E024
:101C70000E94310E8BE39FE10197F1F70895CF9316
:101C8000DF93823029F49091EC0598609093EC05F5
:101C90008093F0051092F10580E48093F20580E1D5
:101CA0008093F30580E58093F40561E08091E10580
:101CB0000E943A028091E2058F3F19F061E00E9494
:101CC0003A0261E08091E3050E943A02CDEDD5E051
:101CD0009E012D5D35408091EC0584FD0BC084E0B4
:101CE00090E021962817390744F461E08E810E9424
:101CF0003A02EECF88E090E0F4CF8BE39DE00197CD
:101D0000F1F760E08091E1050E940C0260E08091B3
:101D1000E3050E940C028091E2058F3F19F060E01C
:101D20000E940C028091EC0584FD34C063E08DEDCF
:101D300095E00E94B10DCBE4D6E4CE010197F1F716
:101D400063E08DED95E00E94B10D2197F1F763E01E
:101D50008DED95E00E94B10D83E592E00197F1F7DA
:101D600062E08DED95E00E94B10D8091EC058062FE
:101D70000E94310E84E08093ED058CE00E94310ECC
:101D80000E94370E82E08093EE0586E0DF91CF91CE
:101D90000C94310E80620E94310E8BE496E4019720
:101DA000F1F78091EC0580620E94310E83E592E0AC
:101DB0000197F1F78091EC0580620E94310ED5CF3A
:101DC0009091F005691710F06FEF690FE62FF0E0C2
:101DD000E352FA4F9489890F80680C94310E41E0E8
:101DE0000E94DE0D81E090E00895FC0180819181E8
:101DF000009711F00C94651E08950F931F93CF93D5
:101E0000DF938C01EB01FC01808191810097E1F06F
:101E10006881798161157105A9F0428153812C8116
:101E20003D814217530770F00E94B41F8C819D8141
:101E3000F801958384831D821C82DF91CF911F91CD
:101E40000F9108950E94651E88819981F801918300
:101E500080838A819B81938382838C819D819583FA
:101E60008483198218821B821A82E5CF0F931F93F5
:101E7000CF93DF93EC0188819981009759F02A81F3
:101E80003B812617370730F081E0DF91CF911F911A
:101E90000F9108958B016F5F7F4F0E94EE1E009798
:101EA00059F0998388831B830A832C813D81232BDE
:101EB00059F7FC011082E8CF80E0E7CFEF92FF9264
:101EC0000F931F93CF93DF93EC01198218821B822B
:101ED0001A821D821C8286179707D9F0FB010081A8
:101EE000118101151105A9F0E480F580B7010E9468
:101EF000360F28813981811113C02115310519F060
:101F0000C9010E94651E198218821D821C821B82D3
:101F10001A82DF91CF911F910F91FF90EF9008955A
:101F2000FD82EC82B801C901DF91CF911F910F9121
:101F3000FF90EF900C94B41FEF92FF920F931F93BA
:101F4000CF93DF93EC01198218821B821A821D82C3
:101F50001C8261157105E1F08B01FB0101900020ED
:101F6000E9F731977F01E61AF70AB7010E94360FA9
:101F700028813981811113C02115310519F0C9015A
:101F80000E94651E198218821D821C821B821A8281
:101F9000DF91CF911F910F91FF90EF900895FD82F7
:101FA000EC82B801C901DF91CF911F910F91FF9091
:101FB000EF900C94B41FFB0101900020E9F73197DA
:101FC000AF01461B570BDC01ED91FC910280F381C0
:101FD000E02D09948F929F92AF92BF92CF92DF92A1
:101FE000EF92FF920F931F93CF93DF93CDB7DEB79E
:101FF000A1970FB6F894DEBF0FBECDBF6C01990F4D
:10200000EE08FF08F7FE43C06DE285EF94E00E9402
:102010004D018C0122273327A9012C193D094E09B6
:102020005F0919A2CE0181967C019AE0892E912C3C
:10203000A12CB12CCA01B901A50194010E948D1DEA
:10204000605DF70162937F0121153105410551055E
:1020500089F790E080E0309729F0BF0185EF94E0A8
:102060000E94DB0F800F911FA1960FB6F894DEBF80
:102070000FBECDBFDF91CF911F910F91FF90EF90D9
:10208000DF90CF90BF90AF909F908F900895A70161
:10209000960119A28E010F5D1F4F8AE0C82ED12C28
:1020A000E12CF12CCA01B901A70196010E948D1DF6
:1020B000605DF80162938F012115310541055105DD
:1020C00089F790E080E0309779F2BF0185EF94E0E6
:1020D0000E94DB0FC9CF6115710511F00C94DB0F65
:1020E00090E080E00895CF93DF93EC010E94370EDB
:1020F00060E080E00E94E00E6AE571E08DED95E021
:102100000E946B1061E084E00E94E00EBE018DED44
:1021100095E0DF91CF910C949F00CF92DF92EF92E8
:10212000FF920F931F93CF93DF9300D000D000D086
:10213000CDB7DEB77C016B018A01BA01CE010196F1
:102140000E945E0FCE0101960E947310CE0101968F
:102150000E94F50E6CE271E080E090E00E94D002F7
:102160000E94F50A019779F4B601C8010E948C001B
:10217000FC018081B6018933A9F5C8010E948C0059
:1021800020E3FC0120830E94F50A029781F4B60146
:10219000C8010E948C00FC018081803341F0B601AF
:1021A000C8010E948C00FC01908191509083F7013E
:1021B000118210821382128215821482B801C70123
:1021C0000E94FD0EC70126960FB6F894DEBF0FBE23
:1021D000CDBFDF91CF911F910F91FF90EF90DF90D6
:1021E000CF900895C8010E948C00FC0190819F5FF0
:1021F0009083C9CFCF93DF93EC010E94370E60E04C
:1022000080E00E94E00E6CE671E08DED95E00E94AA
:102210006B1061E084E00E94E00EBE018DED95E060
:10222000DF91CF910C949F00CF92DF92EF92FF92BB
:102230000F931F93CF93DF9300D000D000D0CDB782
:10224000DEB77C016B018A01BA01CE0101960E94C2
:102250005E0FCE0101960E94FA10CE0101960E94F7
:10226000F50E6CE271E080E090E00E94D0020E94E6
:10227000F50A019779F4B601C8010E948C00FC01AF
:102280008081B6018933A9F5C8010E948C0020E342
:10229000FC0120830E94F50A029781F4B601C8016F
:1022A0000E948C00FC018081803341F0B601C8019E
:1022B0000E948C00FC01908191509083F701118263
:1022C00010821382128215821482B801C7010E9403
:1022D000FD0EC70126960FB6F894DEBF0FBECDBF28
:1022E000DF91CF911F910F91FF90EF90DF90CF90F2
:1022F0000895C8010E948C00FC0190819F5F90832B
:10230000C9CF61E08C5F0E94E00E6CE771E08DED5B
:1023100095E00E946B1062E370E080E090E00C9426
:10232000D002CF93DF93EC010E94370E60E080E093
:102330000E94E00E6EE771E08DED95E00E946B105B
:1023400061E080E00E94E00EBE018DED95E00E940C
:102350009F0061E08EE00E94E00E61E971E08DED8A
:1023600095E0DF91CF910C946B1082E00E943F0EBC
:1023700060E080E00E94E00E64E971E08DED95E0A0
:102380000E946B1061E080E00E94E00E65EA71E05F
:102390008DED95E00C946B101F93CF93DF9385ED3B
:1023A0008093BC0080912B0290912C02A0912D0271
:1023B000B0912E020796A11DB11D23E0B695A795F9
:1023C000979587952A95D1F72091BC0024FD03C0ED
:1023D0001092730252C040912B0250912C026091D6
:1023E0002D0270912E02452B462B472B69F3009747
:1023F000A105B10541F025E32A95F1F70000019709
:10240000A109B109E1CF80912A02C1E0C09329025C
:10241000882399F1D091B8001091BA008091BC0046
:102420008A7B8093BC0060E082E10E940C0260E045
:1024300083E10E940C0210927302C0937502109205
:10244000740261E082E10E940C0261E083E10E947B
:102450000C028091B9008E7F8093B9008091B90001
:102460008D7F8093B90088E48093B80085E48093E1
:10247000BC001093BA00D093B800DF91CF911F91A8
:102480000895BF92CF92DF92EF92FF920F931F9326
:10249000CF93DF93CDB7DEB762970FB6F894DEBF68
:1024A0000FBECDBF0E94F50A0497B1F46CE271E053
:1024B00080E090E00E94D00262960FB6F894DEBFF2
:1024C0000FBECDBFDF91CF911F910F91FF90EF9085
:1024D000DF90CF90BF9008950E94F50A039711F7FF
:1024E0006CE271E080E090E00E94D0020E94370E22
:1024F00060E080E00E94E00E66EB71E08DED95E01B
:102500000E946B1061E080E00E94E00E67EC71E0D9
:102510008DED95E00E946B100E94F50A049709F07A
:102520005DC46CE271E080E090E00E94D0020E9405
:10253000370E60E080E00E94E00E68ED71E08DED06
:1025400095E00E946B1061E080E00E94E00E69EE71
:1025500071E08DED95E00E946B100E94F50A0497E2
:1025600009F01FC26CE271E080E090E00E94D002AE
:102570000E94DB0CBC01CE0101960E949C0FCE0193
:1025800001960E94FA10CE0101960E94F50E0E945B
:10259000450DBC01CE010D960E949C0F10E000E09D
:1025A00075E3F72EE2E3EE2EF3E3DF2E0E94F50A49
:1025B000892B59F40115110541F0015011096CE204
:1025C00071E080E090E00E94D0020E94F50A03973B
:1025D00029F40530110514F40F5F1F4F0230110567
:1025E00009F44BC10CF0A9C00115110509F4D1C0C3
:1025F0000130110509F403C10E94F50A049709F09E
:10260000C6C170E060E0CE010D960E948C00FC0116
:102610002081022E000C330B205331096AE0D62EA4
:10262000D29E8001D39E100D112461E070E0CE0196
:102630000D960E948C00FC018081080F111D87FD02
:102640001A950053110963E070E0CE010D960E94C7
:102650008C00FC01B08064E070E0CE010D960E9419
:102660008C00FC01E08066E070E0CE010D960E94D7
:102670008C00FC01C08067E070E0CE010D960E94E6
:102680008C00FC01F080C8010E94EA0F6AEF71E043
:1026900085EF94E00E94DB0F802F083190F590EDDC
:1026A0009B0D0E2D9D9D000D112400530C3348F5FC
:1026B00090ED9C0D1F2D9D9D100D112410531C336A
:1026C00000F56D2D0E946D1D8295807F682F690F2A
:1026D00082E00E946C0B802F6D2D0E946D1D8295F3
:1026E000807F682F690F81E00E946C0B812F6D2D18
:1026F0000E946D1D8295807F682F690F80E00E9487
:102700006C0B6CE271E080E090E00E94D002BE01B0
:10271000635F7F4F85EF94E00E949F006AEF71E056
:1027200085EF94E00E94DB0F0E94B5110E944112D8
:10273000CE010D960E94F50EBFCE0430110509F4AE
:10274000F2C00CF4CEC00530110509F055CFBE0122
:10275000635F7F4FCE0107960E945E0FAE01495F17
:102760005F4F67E070E0CE0101960E941411BE0138
:102770006F5F7F4FCE010D960E94FD0ECE01019638
:102780000E94F50ECE0107960E94F50E87E090E0BC
:1027900033C0BE01635F7F4FCE0107960E945E0F7C
:1027A000AE01495F5F4F70E060E0CE0101960E948C
:1027B0001411BE016F5F7F4FCE010D960E94FD0E7A
:1027C000CE0101960E94F50ECE0107960E94F50EED
:1027D00070E060E0CE010D960E948C00FC018081CB
:1027E000833341F470E060E0CE010D960E948C00CE
:1027F000FC01E08290E080E00E948111FDCEBE01EC
:10280000635F7F4FCE0107960E945E0FAE01495F66
:102810005F4F61E070E0CE0101960E941411BE018D
:102820006F5F7F4FCE010D960E94FD0ECE01019687
:102830000E94F50ECE0107960E94F50E70E060E052
:10284000CE010D960E948C00FC018081823391F4B0
:1028500061E070E0CE010D960E948C00FC01808149
:10286000843344F061E070E0CE010D960E948C004C
:10287000FC01D08281E090E0BFCFBE01635F7F4F5B
:10288000CE0107960E945E0FAE01495F5F4F63E085
:1028900070E0CE0101960E941411BE016F5F7F4F60
:1028A000CE010D960E94FD0ECE0101960E94F50EFE
:1028B000CE0107960E94F50E63E070E0CE010D9602
:1028C0000E948C00FC018081863341F463E070E05B
:1028D000CE010D960E948C00FC01F08283E090E016
:1028E0008BCFBE01635F7F4FCE0107960E945E0FC4
:1028F000AE01495F5F4F64E070E0CE0101960E9437
:102900001411BE016F5F7F4FCE010D960E94FD0E28
:10291000CE0101960E94F50ECE0107960E94F50E9B
:1029200084E090E069CFBE01635F7F4FCE010796E0
:102930000E945E0FAE01495F5F4F66E070E0CE011E
:1029400001960E941411BE016F5F7F4FCE010D965C
:102950000E94FD0ECE0101960E94F50ECE01079653
:102960000E94F50E66E070E0CE010D960E948C008C
:10297000FC018081863341F466E070E0CE010D9663
:102980000E948C00FC01F08286E090E035CFC80107
:102990000E94EA0F6AEF71E085EF94E00E94DB0F7E
:1029A00005CE0E94F50A039709F0D7CD6CE271E0DD
:1029B00080E090E00E94D0020E94DB0CBC01CE01BE
:1029C00001960E949C0FCE0101960E947310CE01C9
:1029D00001960E94F50E0E94DB0CBC01CE010D9603
:1029E0000E949C0F10E000E031E3F32E42E3E42E5E
:1029F00053E3D52E0E94F50A892B59F401151105D0
:102A000041F0015011096CE271E080E090E00E9419
:102A1000D0020E94F50A039729F40530110514F439
:102A20000F5F1F4F0230110509F444C10CF0A2C022
:102A30000115110509F4CAC00130110509F4FCC0E3
:102A40000E94F50A0497B1F670E060E0CE010D96A1
:102A50000E948C00FC018081082E000C990BC0970D
:102A60001AE0189F7001199FF00C112461E070E0CA
:102A7000CE010D960E948C00FC018081E80EF11CB5
:102A800087FDFA946701F0E3CF1AD10863E070E0A4
:102A9000CE010D960E948C00FC01F08064E070E095
:102AA000CE010D960E948C00FC01D08068E070E0A1
:102AB000CE010D960E948C00FC01E08069E070E080
:102AC000CE010D960E948C00FC018FEF8C0D8F3192
:102AD00008F049C08F2DFF0C990BC097189F9001EB
:102AE000199F300D11242D0D311DD7FC3A9520531F
:102AF0003109F22E21502C30B0F52E2DEE0C330B77
:102B000020533109129FC001139F900D112480534F
:102B1000984F2081820F911D27FD9A959850883EED
:102B2000F3E09F0700F5612F0E946D1D8295807F65
:102B3000682F690F86E00E946C0B8F2D612F0E9419
:102B40006D1D8295807F682F690F85E00E946C0B58
:102B50008C2D612F0E946D1D8295807F682F690FDB
:102B600084E00E946C0B6CE271E080E090E00E94D7
:102B7000D002DACD0430110509F40EC10CF4CEC038
:102B80000530110509F05CCFBE01635F7F4FCE01B8
:102B900007960E945E0FAE01495F5F4F69E070E0EB
:102BA000CE0101960E948D10BE016F5F7F4FCE0156
:102BB0000D960E94FD0ECE0101960E94F50ECE01EB
:102BC00007960E94F50E89E090E033C0BE01635F76
:102BD0007F4FCE0107960E945E0FAE01495F5F4FA7
:102BE00070E060E0CE0101960E948D10BE016F5F23
:102BF0007F4FCE010D960E94FD0ECE0101960E94E0
:102C0000F50ECE0107960E94F50E70E060E0CE0151
:102C10000D960E948C00FC018081843341F470E0A9
:102C200060E0CE010D960E948C00FC01D08290E005
:102C300080E00E94811104CFBE01635F7F4FCE010F
:102C400007960E945E0FAE01495F5F4F61E070E042
:102C5000CE0101960E948D10BE016F5F7F4FCE01A5
:102C60000D960E94FD0ECE0101960E94F50ECE013A
:102C700007960E94F50E70E060E0CE010D960E946E
:102C80008C00FC018081833391F461E070E0CE011F
:102C90000D960E948C00FC018081823344F061E03B
:102CA00070E0CE010D960E948C00FC01F08281E064
:102CB00090E0BFCFBE01635F7F4FCE0107960E94B9
:102CC0005E0FAE01495F5F4F63E070E0CE01019699
:102CD0000E948D10BE016F5F7F4FCE010D960E9446
:102CE000FD0ECE0101960E94F50ECE0107960E94C0
:102CF000F50E63E070E0CE010D960E948C00FC01A1
:102D00008081823341F463E070E0CE010D960E9431
:102D10008C00FC01F08283E090E08BCFBE01635F0A
:102D20007F4FCE0107960E945E0FAE01495F5F4F55
:102D300064E070E0CE0101960E948D10BE016F5FCD
:102D40007F4FCE010D960E94FD0ECE0101960E948E
:102D5000F50ECE0107960E94F50E63E070E0CE01FD
:102D60000D960E948C00FC018081813391F464E017
:102D700070E0CE010D960E948C00FC0180818233B0
:102D800044F064E070E0CE010D960E948C00FC01DE
:102D9000E08284E090E04DCFBE01635F7F4FCE01C3
:102DA00007960E945E0FAE01495F5F4F68E070E0DA
:102DB000CE0101960E948D10BE016F5F7F4FCE0144
:102DC0000D960E94FD0ECE0101960E94F50ECE01D9
:102DD00007960E94F50E88E090E02BCF0E94F50A3E
:102DE000039709F099CB6CE271E080E090E00E94DB
:102DF000D0026DEF71E0CE010D960E949C0FBE01D6
:102E0000635F7F4FCE0101960E945E0FCE01019657
:102E10000E949111CE0101960E94F50E10E000E093
:102E200084E3F82E91E3E92E20E3D22EBE01635F06
:102E30007F4FCE0101960E945E0FCE0101960E9447
:102E40009111CE0101960E94F50E0E94F50A892B80
:102E500059F40115110541F0015011096CE271E0BE
:102E600080E090E00E94D0020E94F50A039741F4AE
:102E70000F5F1F4F6CE271E080E090E00E94D00293
:102E800070E060E0CE010D960E948C00FC01808114
:102E9000853341F470E060E0CE010D960E948C0015
:102EA000FC01F08270E060E0CE010D960E948C0083
:102EB000FC018081843391F461E070E0CE010D96D5
:102EC0000E948C00FC018081823341F461E070E05B
:102ED000CE010D960E948C00FC01E082BE01635F72
:102EE0007F4FCE0107960E945E0FBE01695F7F4F44
:102EF000CE0101960E945E0FCE0101960E949111B3
:102F0000CE0101960E94F50E6CE271E080E090E047
:102F10000E94D0020E94F50A019789F4B801CE01FF
:102F200007960E948C00FC018081B801893309F06A
:102F300053C0CE0107960E948C00FC01D0820E94F3
:102F4000F50A029791F4B801CE0107960E948C0011
:102F5000FC018081803349F0B801CE0107960E94C0
:102F60008C00FC019081915090831A8219821C82FE
:102F70001B821E821D82BE01695F7F4FCE010196BA
:102F80000E94FD0EBE016F5F7F4FCE010D960E9425
:102F9000FD0ECE0101960E94F50ECE0107960E940D
:102FA000F50E0A30110524F4C80104970E9481111E
:102FB0000E94F50A049709F039CF8D859E85009708
:102FC000A1F00E94FA1C6093ED047093EE048093CC
:102FD000EF049093F004C7CDCE0107960E948C00B9
:102FE000FC0190819F5F9083AACF60E070E0CB01ED
:102FF000EACF1F920F920FB60F9211242F933F9397
:103000004F935F936F937F938F939F93AF93BF93F0
:10301000EF93FF9385EF94E00E942B01FF91EF91D6
:10302000BF91AF919F918F917F916F915F914F91E0
:103030003F912F910F900FBE0F901F9018951F92E8
:103040000F920FB60F9211242F938F939F93EF93AC
:10305000FF93E0910505F09106058081E0910B0555
:10306000F0910C0582FD1BC0908180910E058F5F51
:103070008F7320910F05821741F0E0910E05F0E06B
:10308000EB50FB4F958F80930E05FF91EF919F9131
:103090008F912F910F900FBE0F901F9018958081E8
:1030A000F4CF1F920F920FB60F9211242F933F93DC
:1030B0008F939F93AF93BF938091E0049091E1042D
:1030C000A091E204B091E3043091DF0423E0230FE8
:1030D0002D3758F50196A11DB11D2093DF04809373
:1030E000E0049093E104A093E204B093E3048091A0
:1030F000E4049091E504A091E604B091E704019600
:10310000A11DB11D8093E4049093E504A093E6040F
:10311000B093E704BF91AF919F918F913F912F9111
:103120000F900FBE0F901F90189526E8230F029660
:10313000A11DB11DD2CF1F920F920FB60F92112475
:103140002F933F934F935F936F937F938F939F93AF
:10315000AF93BF93EF93FF93E091EB04F091EC04F6
:10316000309749F0A685B7858585968D91FF14C067
:103170009C918923A1F4FF91EF91BF91AF919F9111
:103180008F917F916F915F914F913F912F910F9010
:103190000FBE0F901F9018959C91892361F7A3890A
:1031A000B4899C918589809589238C938689978998
:1031B0000197F1F7608D718DA685B785558538E04B
:1031C00020E0CB010197F1F7822F90E0959587954C
:1031D000282F4C91452309F02068315091F7868DB6
:1031E00081FD20958091EA0490E001968F739927E4
:1031F0003091E904381799F0A091EA04B0E0A156A3
:10320000BB4F2C938093EA04828D938D0197F1F745
:10321000A389B4898C919589892B8C93ACCF868DA9
:103220008160868FF1CF1F920F920FB60F921124FB
:103230002F933F934F935F936F937F938F939F93BE
:10324000AF93BF93EF93FF938091B900887F80364F
:1032500009F44AC0F0F5883209F4A5C018F58031A8
:1032600009F499C0B8F4882309F4F5C0883009F44A
:1032700092C0FF91EF91BF91AF919F918F917F91FC
:103280006F915F914F913F912F910F900FBE0F90D3
:103290001F901895883109F486C0803251F78093C9
:1032A000720214C0803409F49BC040F48033B9F337
:1032B0008833F9F68093720285ECAEC0803509F44C
:1032C00083C0883509F494C0883499F60E94CC11E3
:1032D000D0CF883909F48AC038F5883729F050F4FE
:1032E000883611F0803729F683E0809373021092BC
:1032F000710255C0883809F479C0803919F08038D6
:1033000009F0B7CF80917102803208F06FC0E09170
:10331000710281E08E0F809371028091BB00F0E01A
:10332000EF5AFD4F80833BC0803B39F0D0F4803AA8
:1033300009F477C0883A09F09CCF84E08093730247
:103340001092500210924F02F0E0E0E00995809157
:103350004F0281110FC081E080934F0210922F0223
:1033600009C0803C09F4A8CF883C09F4A5CF883B6C
:1033700009F07FCFE091500281E08E0F80935002E0
:10338000F0E0E15DFD4F80818093BB0090915002A1
:1033900080914F0229C0809198028093BB0085ECF8
:1033A0008093BC0066CF9091970280919602981707
:1033B00058F5E091970281E08E0F80939702F0E03C
:1033C000EA58FD4F8081E9CFE091970281E08E0FAE
:1033D000809397028091BB00F0E0EA58FD4F808314
:1033E00090919702809196029817C8F285E8D8CFFD
:1033F000E091970281E08E0F809397028091BB004D
:10340000F0E0EA58FD4F80838091750281115ECF14
:1034100081E08093740284EA8093BC00109273026E
:1034200028CF85EC8093BC001092730280917102CA
:10343000803230F4E0917102F0E0EF5AFD4F1082DB
:103440006091710270E081E592E0F0E0E0E00995C2
:10345000109271020ECF1092720238CFE5EFF4E0B5
:103460001382128288EE93E0A0E0B0E0848395831B
:10347000A683B78384E391E09183808385EC90E019
:103480009587848784EC90E09787868780EC90E02E
:10349000918B808B81EC90E0938B828B82EC90E01F
:1034A000958B848B86EC90E0978B868B118E128E99
:1034B000138E148EE2E9F5E080E580831182E4E961
:1034C000F5E0158216821186138682E090E0A0E076
:1034D000B0E084879587A687B78713A215A614A6A0
:1034E00086E491E093A782A717A6E5EFF5E082E1D5
:1034F000818383E18083EDEDF5E01382128282E522
:1035000091E09183808388E084838FEF858389E0D5
:10351000868384E0878385E0808786E0818787E0F3
:1035200082871386148615861686178681E00C948A
:103530003F0ECF93DF93CDB7DEB76F970FB6F894FA
:10354000DEBF0FBECDBF789484B5826084BD84B5E4
:10355000816084BD85B5826085BD85B5816085BD8E
:1035600080916E00816080936E0010928100809146
:1035700081008260809381008091810081608093CE
:103580008100809180008160809380008091B100F3
:1035900084608093B1008091B00081608093B0001E
:1035A00080917A00846080937A0080917A008260B2
:1035B00080937A0080917A00816080937A00809174
:1035C0007A00806880937A001092C1001C821B826E
:1035D00088EE93E0A0E0B0E08D839E83AF83B88750
:1035E00082E291E09A838983188E1F8A1A8E198E3F
:1035F0001C8E1B8E1E8E1D8E6F8D6E7F6D7F6F8F4E
:103600006695617081E0682783E00E940C0261E0AA
:1036100083E00E943A02E1EBF0E0E491E98BEDE90E
:10362000F0E0E491F0E0EE0FFF1FE057FF4F8591CF
:1036300094919B8B8A8B60E082E00E943A028F8D8E
:1036400081FD04C061E082E00E940C0282E08D876F
:10365000E0EBF0E0E491EE87ECE9F0E0E491F0E0FB
:10366000EE0FFF1FEA57FF4F25913491388B2F87BC
:10367000E0910505F09106058083E0910105F09148
:1036800002051082E0910305F09104058FEC808320
:1036900010920D05E0910905F0910A0586E08083FE
:1036A000E0910705F0910805808180618083E091B9
:1036B0000705F0910805808188608083E091070507
:1036C000F0910805808180688083E0910705F09182
:1036D000080580818F7D80838091F605823109F015
:1036E00072C18091F505833109F06DC181E080934D
:1036F000FE0561E082E10E940C0261E083E10E942C
:103700000C028091B9008E7F8093B9008091B9003E
:103710008D7F8093B9008CE08093B80085E0809322
:10372000BC000E94B5110E9441120E94370E68E051
:1037300072E08DED95E00E946B108091ED04909108
:10374000EE04A091EF04B091F004892B8A2B8B2B0F
:1037500061F484E690E0A0E0B0E08093ED04909303
:10376000EE04A093EF04B093F0040E940203609370
:10377000F1047093F2048093F3049093F4041C8E8C
:103780001B8E1A8E198E188E1F8A8DE991E09E8FDE
:103790008D8F8D85863108F03DC02DEB30E0388F60
:1037A0002F8B2BE931E03A8F298F2CE231E03C8FCF
:1037B0002B8F90916800883008F40DC121E08E3085
:1037C00008F420E081E001C0880F2A95EAF7892BF0
:1037D000809368009D852DE630E0983050F02BE610
:1037E00030E09E3030F02CE630E0963110F030E0E2
:1037F00020E03D8B2C8B292F30E0983008F0EDC075
:1038000081E001C0880F9A95EAF78E8B8D8D9E8D91
:103810000197F1F78B8D9C8D8E010F5F1F4F892BC8
:1038200009F1E091EB04F091EC040E171F07D1F0C1
:10383000309739F0A389B4899C9185898095892333
:103840008C938F8D8E7F8F8F1092EA041092E904F3
:103850001093EC040093EB04EC89FD8980819E8930
:10386000892B808367E172E0C8010E94DB0F6AEF59
:1038700071E0C8010E94DB0F82E291E09A838983A4
:103880008091EB049091EC040817190759F4EC8926
:10389000FD8990818E898095892380831092EC0424
:1038A0001092EB0400E010E00E940203C090F104CB
:1038B000D090F204E090F304F090F4044B015C012A
:1038C0008C189D08AE08BF08C090ED04D090EE049F
:1038D000E090EF04F090F0048C149D04AE04BF045B
:1038E00008F45FC06093F1047093F2048093F304D2
:1038F0009093F4040E94450DBC0185EF94E00E9472
:103900006B106CE771E085EF94E00E946B100E94F1
:10391000DB0CBC0185EF94E00E946B1065E272E065
:1039200085EF94E00E946B1081E00E949A020E9451
:10393000EA0F65E272E085EF94E00E946B1082E08E
:103940000E949A020E94EA0F65E272E085EF94E01D
:103950000E946B1083E00E949A020E94EA0F65E2C7
:1039600072E085EF94E00E946B1086E00E949A025C
:103970000E94EA0F65E272E085EF94E00E946B100E
:1039800087E00E949A020E94EA0F65E272E085EFEA
:1039900094E00E946B106AEF71E085EF94E00E9462
:1039A000DB0F64E670E080E090E00E94D002011539
:1039B000110509F479CF0E941701882309F474CF07
:1039C0000E94000071CF1092FE0561E08091F50524
:1039D0000E943A02A6CE84E0FACE9E3040F42850EF
:1039E000310981E001C0880F2A95EAF70ECF2E50E9
:1039F0003109F7CF1F93FC0199278827BC01E89470
:103A000011911032E9F3193010F01E30C8F31B3257
:103A100051F01D3249F4689406C00E94211D610FC7
:103A2000711D811D911D119110531A30B0F33EF498
:103A300090958095709561957F4F8F4F9F4F1F9107
:103A40000895592F482F372F262F660F771F881F6D
:103A5000991F660F771F881F991F620F731F841F9E
:103A6000951F660F771F881F991F08952F923F9209
:103A70004F925F926F927F928F929F92AF92BF927E
:103A8000CF92DF92EF92FF920F931F93CF93DF932A
:103A9000CDB7DEB7CA1BDB0B0FB6F894DEBF0FBE87
:103AA000CDBF09942A88398848885F846E847D84D4
:103AB0008C849B84AA84B984C884DF80EE80FD80D6
:103AC0000C811B81AA81B981CE0FD11D0FB6F8944C
:103AD000DEBF0FBECDBFED010895991B79E004C094
:103AE000991F961708F0961B881F7A95C9F780953D
:103AF000089597FB072E16F4009407D077FD09D0A0
:103B00000E94AF1D07FC05D03EF4909581959F4F14
:103B10000895709561957F4F0895A1E21A2EAA1B12
:103B2000BB1BFD010DC0AA1FBB1FEE1FFF1FA2176D
:103B3000B307E407F50720F0A21BB30BE40BF50B6A
:103B4000661F771F881F991F1A9469F760957095F3
:103B5000809590959B01AC01BD01CF010895AA1BF2
:103B6000BB1B51E107C0AA1FBB1FA617B70710F068
:103B7000A61BB70B881F991F5A95A9F7809590959A
:103B8000BC01CD010895EE0FFF1F0590F491E02DCB
:103B900009940F931F93CF93DF938230910510F414
:103BA00082E090E0E0910106F091020630E020E032
:103BB000B0E0A0E0309799F42115310509F44AC02E
:103BC000281B390B24303105D8F58A819B8161157A
:103BD000710589F1FB0193838283FE0111C040814D
:103BE00051810281138148175907E0F0481759079E
:103BF00099F4109761F012960C93129713961C93F8
:103C00003296CF01DF91CF911F910F9108950093CC
:103C1000010610930206F4CF2115310551F0421729
:103C2000530738F0A901DB019A01BD01DF01F8015A
:103C3000C1CFEF01F9CF9093020680930106CDCF5B
:103C4000FE01E20FF31F81939193225031093983D2
:103C50002883D7CF2091FF0530910006232B41F414
:103C600020911A0130911B01309300062093FF052B
:103C700020911801309119012115310541F42DB71A
:103C80003EB740911C0150911D01241B350BE09162
:103C9000FF05F0910006E217F307A0F42E1B3F0B7F
:103CA0002817390778F0AC014E5F5F4F24173507AE
:103CB00048F04E0F5F1F509300064093FF0581931D
:103CC00091939FCFF0E0E0E09CCFCF93DF930097FC
:103CD000E9F0FC01329713821282A0910106B091A3
:103CE0000206ED0130E020E01097A1F4208131813F
:103CF000820F931F2091FF05309100062817390786
:103D000009F061C0F0930006E093FF05DF91CF91C9
:103D10000895EA01CE17DF07E8F54A815B819E012D
:103D200041155105B1F7E901FB83EA8349915991A6
:103D3000C40FD51FEC17FD0761F4808191810296B5
:103D4000840F951FE90199838883828193819B83E6
:103D50008A83F0E0E0E012968D919C911397009792
:103D6000B9F52D913C911197CD010296820F931FC9
:103D70002091FF05309100062817390739F6309752
:103D800051F51092020610920106B0930006A0931E
:103D9000FF05BCCFD383C28340815181840F951F1F
:103DA000C817D90761F44E5F5F4F88819981480F2A
:103DB000591F518340838A819B819383828321157C
:103DC000310509F0B0CFF0930206E09301069ECFD3
:103DD000FD01DC01C0CF13821282D7CFB0E0A0E09A
:103DE000E4EFFEE10C94381D8C01009751F4CB01F7
:103DF0000E94C91D8C01C801CDB7DEB7E0E10C946B
:103E0000541DFC01E60FF71F9C0122503109E217F7
:103E1000F30708F49DC0D901CD91DC911197C61725
:103E2000D70798F0C530D10530F3CE010497861737
:103E3000970708F3C61BD70B2297C193D1936D93B5
:103E40007C93CF010E94651ED6CF5B01AC1ABD0AE0
:103E50004C018C0E9D1EA0910106B0910206512CC2
:103E6000412CF12CE12C109731F58091FF059091B8
:103E700000068815990509F05CC04616570608F03B
:103E800058C08091180190911901009741F48DB7A5
:103E90009EB740911C0150911D01841B950BE817A2
:103EA000F90708F055C0F0930006E093FF05F9010B
:103EB00071836083A0CF8D919C91119712966C9025
:103EC000129713967C901397A815B90559F56C01B4
:103ED00042E0C40ED11CCA14DB0420F1AC014A1923
:103EE0005B09DA011296159780F062827382518322
:103EF0004083D9016D937C93E114F10471F0D701F3
:103F00001396FC93EE93129776CF22968C0F9D1FFB
:103F1000F90191838083F301EFCFF0930206E093E0
:103F2000010669CF4816590608F42C017D01D3011A
:103F30009ACFCB010E94C91D7C01009749F0AE01C8
:103F4000B8010E94AB1FC8010E94651E870153CFB4
:103F500010E000E050CFFB01DC0102C001900D92A7
:103F600041505040D8F70895FB01DC0101900D92BB
:103F70000020E1F70895F894FFCFFFFFFFFF787866
:103F80007878787878780078787878787878787829
:103F90007800000003068000000000002703AD0049
:103FA000F20A260383039B030E03000000004D0169
:103FB000AD00DA009A010B01E900FD0000000000ED
:103FC0002D09AD00D3089E0000000000EF0EAD00EB
:103FD000F20A9E00466F726D61742044443A4D4D62
:103FE0003A5959595900466F726D61742048483AE0
:103FF0004D4D3A53530020005365742050726F6248
:104000006520496E74657276616C006D73004C6F4B
:1040100067203A202020202053454C45435400433C
:104020006F6E666967203A20202052494748540045
:10403000446174652654696D653A53454C45435453
:1040400000496E74657276616C3A20205249474887
:10405000540054696D65203A2020202053454C457A
:1040600043540044617465203A20202020205249A6
:10407000474854000D0A0030303030303030303096
:10408000300020204C6F676572204163746976654B
:104090000048656C6C6F2C20776F726C643F003B3E
:0240A00000001E
:107E0000112484B714BE81FFF0D085E080938100F7
:107E100082E08093C00088E18093C10086E0809377
:107E2000C20080E18093C4008EE0C9D0259A86E02C
:107E300020E33CEF91E0309385002093840096BBD3
:107E4000B09BFECF1D9AA8958150A9F7CC24DD24C4
:107E500088248394B5E0AB2EA1E19A2EF3E0BF2EE7
:107E6000A2D0813461F49FD0082FAFD0023811F036
:107E7000013811F484E001C083E08DD089C08234E0
:107E800011F484E103C0853419F485E0A6D080C0E4
:107E9000853579F488D0E82EFF2485D0082F10E0AE
:107EA000102F00270E291F29000F111F8ED06801E7
:107EB0006FC0863521F484E090D080E0DECF843638
:107EC00009F040C070D06FD0082F6DD080E0C81688
:107ED00080E7D80618F4F601B7BEE895C0E0D1E017
:107EE00062D089930C17E1F7F0E0CF16F0E7DF06D8
:107EF00018F0F601B7BEE89568D007B600FCFDCFD4
:107F0000A601A0E0B1E02C9130E011968C91119780
:107F100090E0982F8827822B932B1296FA010C0160
:107F200087BEE89511244E5F5F4FF1E0A038BF0790
:107F300051F7F601A7BEE89507B600FCFDCF97BE46
:107F4000E89526C08437B1F42ED02DD0F82E2BD052
:107F50003CD0F601EF2C8F010F5F1F4F84911BD097
:107F6000EA94F801C1F70894C11CD11CFA94CF0C13
:107F7000D11C0EC0853739F428D08EE10CD085E9AC
:107F80000AD08FE07ACF813511F488E018D01DD067
:107F900080E101D065CF982F8091C00085FFFCCF94
:107FA0009093C60008958091C00087FFFCCF809118
:107FB000C00084FD01C0A8958091C6000895E0E648
:107FC000F0E098E1908380830895EDDF803219F02E
:107FD00088E0F5DFFFCF84E1DECF1F93182FE3DFCA
:107FE0001150E9F7F2DF1F91089580E0E8DFEE27F6
:047FF000FF270994CA
:027FFE00040479
:00000001FF
